{
  "_format": "hh-sol-artifact-1",
  "contractName": "BlockSig",
  "sourceName": "contracts/BlockSig.sol",
  "abi": [
    {
      "anonymous": false,
      "inputs": [
        {
          "indexed": false,
          "internalType": "bytes32",
          "name": "hash",
          "type": "bytes32"
        },
        {
          "indexed": false,
          "internalType": "bytes32",
          "name": "finalHash",
          "type": "bytes32"
        }
      ],
      "name": "Completed",
      "type": "event"
    },
    {
      "anonymous": false,
      "inputs": [
        {
          "indexed": false,
          "internalType": "bytes32",
          "name": "hash",
          "type": "bytes32"
        }
      ],
      "name": "Created",
      "type": "event"
    },
    {
      "anonymous": false,
      "inputs": [
        {
          "indexed": false,
          "internalType": "bytes32",
          "name": "hash",
          "type": "bytes32"
        },
        {
          "indexed": false,
          "internalType": "bytes32",
          "name": "signatureHash",
          "type": "bytes32"
        },
        {
          "indexed": false,
          "internalType": "address",
          "name": "signer",
          "type": "address"
        }
      ],
      "name": "Notarized",
      "type": "event"
    },
    {
      "anonymous": false,
      "inputs": [
        {
          "indexed": true,
          "internalType": "address",
          "name": "previousOwner",
          "type": "address"
        },
        {
          "indexed": true,
          "internalType": "address",
          "name": "newOwner",
          "type": "address"
        }
      ],
      "name": "OwnershipTransferred",
      "type": "event"
    },
    {
      "anonymous": false,
      "inputs": [
        {
          "indexed": false,
          "internalType": "bytes32",
          "name": "hash",
          "type": "bytes32"
        },
        {
          "indexed": false,
          "internalType": "bytes32",
          "name": "signatureHash",
          "type": "bytes32"
        },
        {
          "indexed": false,
          "internalType": "address",
          "name": "signer",
          "type": "address"
        }
      ],
      "name": "Signature",
      "type": "event"
    },
    {
      "anonymous": false,
      "inputs": [
        {
          "indexed": false,
          "internalType": "bytes32",
          "name": "hash",
          "type": "bytes32"
        }
      ],
      "name": "Signed",
      "type": "event"
    },
    {
      "inputs": [
        {
          "internalType": "bytes32",
          "name": "hash",
          "type": "bytes32"
        },
        {
          "internalType": "address[]",
          "name": "signers",
          "type": "address[]"
        },
        {
          "internalType": "bool",
          "name": "notarize",
          "type": "bool"
        }
      ],
      "name": "createDoc",
      "outputs": [],
      "stateMutability": "nonpayable",
      "type": "function"
    },
    {
      "inputs": [
        {
          "internalType": "bytes32",
          "name": "originalHash",
          "type": "bytes32"
        },
        {
          "internalType": "bytes32",
          "name": "finalHash",
          "type": "bytes32"
        }
      ],
      "name": "finalizeDoc",
      "outputs": [],
      "stateMutability": "nonpayable",
      "type": "function"
    },
    {
      "inputs": [
        {
          "internalType": "bytes32",
          "name": "hash",
          "type": "bytes32"
        }
      ],
      "name": "getDocument",
      "outputs": [
        {
          "internalType": "uint256",
          "name": "createdTime",
          "type": "uint256"
        },
        {
          "internalType": "uint256",
          "name": "remainingSignatures",
          "type": "uint256"
        },
        {
          "internalType": "uint256",
          "name": "completedTime",
          "type": "uint256"
        },
        {
          "internalType": "bytes32",
          "name": "completedHash",
          "type": "bytes32"
        },
        {
          "internalType": "string",
          "name": "status",
          "type": "string"
        }
      ],
      "stateMutability": "view",
      "type": "function"
    },
    {
      "inputs": [
        {
          "internalType": "bytes32",
          "name": "hash",
          "type": "bytes32"
        }
      ],
      "name": "getFinalDoc",
      "outputs": [
        {
          "internalType": "bytes32",
          "name": "originalHash",
          "type": "bytes32"
        }
      ],
      "stateMutability": "view",
      "type": "function"
    },
    {
      "inputs": [
        {
          "internalType": "bytes32",
          "name": "hash",
          "type": "bytes32"
        },
        {
          "internalType": "address",
          "name": "signer",
          "type": "address"
        }
      ],
      "name": "getSignerTime",
      "outputs": [
        {
          "internalType": "uint256",
          "name": "",
          "type": "uint256"
        }
      ],
      "stateMutability": "view",
      "type": "function"
    },
    {
      "inputs": [],
      "name": "isOwner",
      "outputs": [
        {
          "internalType": "bool",
          "name": "",
          "type": "bool"
        }
      ],
      "stateMutability": "view",
      "type": "function"
    },
    {
      "inputs": [],
      "name": "owner",
      "outputs": [
        {
          "internalType": "address",
          "name": "",
          "type": "address"
        }
      ],
      "stateMutability": "view",
      "type": "function"
    },
    {
      "inputs": [],
      "name": "renounceOwnership",
      "outputs": [],
      "stateMutability": "nonpayable",
      "type": "function"
    },
    {
      "inputs": [
        {
          "internalType": "bytes32",
          "name": "hash",
          "type": "bytes32"
        },
        {
          "internalType": "bytes32",
          "name": "signatureHash",
          "type": "bytes32"
        },
        {
          "internalType": "address",
          "name": "signer",
          "type": "address"
        },
        {
          "internalType": "bool",
          "name": "notarized",
          "type": "bool"
        }
      ],
      "name": "sign",
      "outputs": [],
      "stateMutability": "nonpayable",
      "type": "function"
    },
    {
      "inputs": [
        {
          "internalType": "address",
          "name": "newOwner",
          "type": "address"
        }
      ],
      "name": "transferOwnership",
      "outputs": [],
      "stateMutability": "nonpayable",
      "type": "function"
    }
  ],
  "bytecode": "0x608060405234801561001057600080fd5b50336000806101000a81548173ffffffffffffffffffffffffffffffffffffffff021916908373ffffffffffffffffffffffffffffffffffffffff16021790555060008054906101000a900473ffffffffffffffffffffffffffffffffffffffff1673ffffffffffffffffffffffffffffffffffffffff16600073ffffffffffffffffffffffffffffffffffffffff167f8be0079c531659141344cd1fd0a4f28419497f9722a3daafe3b4186f6b6457e060405160405180910390a36118be806100db6000396000f3fe608060405234801561001057600080fd5b506004361061009e5760003560e01c80638f32d59b116100665780638f32d59b14610147578063b10d6b4114610165578063c883c50614610199578063e7dc50ab146101b5578063f2fde38b146101d15761009e565b80633ecf91cc146100a357806340e2c29d146100d3578063715018a6146101035780637c4018061461010d5780638da5cb5b14610129575b600080fd5b6100bd60048036038101906100b89190611114565b6101ed565b6040516100ca9190611150565b60405180910390f35b6100ed60048036038101906100e891906111c9565b61022f565b6040516100fa9190611222565b60405180910390f35b61010b6102fe565b005b6101276004803603810190610122919061123d565b610403565b005b61013161062c565b60405161013e919061128c565b60405180910390f35b61014f610655565b60405161015c91906112c2565b60405180910390f35b61017f600480360381019061017a9190611114565b6106ac565b60405161019095949392919061136d565b60405180910390f35b6101b360048036038101906101ae919061153b565b610961565b005b6101cf60048036038101906101ca91906115aa565b610bff565b005b6101eb60048036038101906101e69190611611565b610f29565b005b600061020b6002600084815260200190815260200160002054610f7c565b61021457600080fd5b60026000838152602001908152602001600020549050919050565b600061023a83610f7c565b61024357600080fd5b600180600085815260200190815260200160002060050160008473ffffffffffffffffffffffffffffffffffffffff1673ffffffffffffffffffffffffffffffffffffffff16815260200190815260200160002054116102a257600080fd5b6001600084815260200190815260200160002060050160008373ffffffffffffffffffffffffffffffffffffffff1673ffffffffffffffffffffffffffffffffffffffff16815260200190815260200160002054905092915050565b610306610655565b610345576040517f08c379a000000000000000000000000000000000000000000000000000000000815260040161033c9061168a565b60405180910390fd5b600073ffffffffffffffffffffffffffffffffffffffff1660008054906101000a900473ffffffffffffffffffffffffffffffffffffffff1673ffffffffffffffffffffffffffffffffffffffff167f8be0079c531659141344cd1fd0a4f28419497f9722a3daafe3b4186f6b6457e060405160405180910390a360008060006101000a81548173ffffffffffffffffffffffffffffffffffffffff021916908373ffffffffffffffffffffffffffffffffffffffff160217905550565b61040b610655565b61044a576040517f08c379a00000000000000000000000000000000000000000000000000000000081526004016104419061168a565b60405180910390fd5b6002600381111561045e5761045d6116aa565b5b6001600084815260200190815260200160002060040160009054906101000a900460ff166003811115610494576104936116aa565b5b14806104e75750600160038111156104af576104ae6116aa565b5b6001600084815260200190815260200160002060040160009054906101000a900460ff1660038111156104e5576104e46116aa565b5b145b80610539575060006003811115610501576105006116aa565b5b6001600084815260200190815260200160002060040160009054906101000a900460ff166003811115610537576105366116aa565b5b145b61054257600080fd5b600060f81b6001600084815260200190815260200160002060030154600060208110610571576105706116d9565b5b1a60f81b7effffffffffffffffffffffffffffffffffffffffffffffffffffffffffffff1916146105a157600080fd5b8060016000848152602001908152602001600020600301819055508160026000838152602001908152602001600020819055507fe2c44fe92df9ca909edd12ba787e0a3df0df543248b54010e25c08d174bb3c498282604051610605929190611708565b60405180910390a14260016000848152602001908152602001600020600201819055505050565b60008060009054906101000a900473ffffffffffffffffffffffffffffffffffffffff16905090565b60008060009054906101000a900473ffffffffffffffffffffffffffffffffffffffff1673ffffffffffffffffffffffffffffffffffffffff163373ffffffffffffffffffffffffffffffffffffffff1614905090565b60008060008060606106bd86610f7c565b6106c657600080fd5b60016000878152602001908152602001600020600001549450600060038111156106f3576106f26116aa565b5b6001600088815260200190815260200160002060040160009054906101000a900460ff166003811115610729576107286116aa565b5b0361076b576040518060400160405280600781526020017f70656e64696e6700000000000000000000000000000000000000000000000000815250905061090d565b6001600381111561077f5761077e6116aa565b5b6001600088815260200190815260200160002060040160009054906101000a900460ff1660038111156107b5576107b46116aa565b5b036107f7576040518060400160405280600681526020017f7369676e65640000000000000000000000000000000000000000000000000000815250905061090c565b6002600381111561080b5761080a6116aa565b5b6001600088815260200190815260200160002060040160009054906101000a900460ff166003811115610841576108406116aa565b5b03610883576040518060400160405280600981526020017f6e6f746172697a65640000000000000000000000000000000000000000000000815250905061090b565b600380811115610896576108956116aa565b5b6001600088815260200190815260200160002060040160009054906101000a900460ff1660038111156108cc576108cb6116aa565b5b0361090a576040518060400160405280600881526020017f63616e63656c656400000000000000000000000000000000000000000000000081525090505b5b5b5b60016000878152602001908152602001600020600101549350600160008781526020019081526020016000206002015492506001600087815260200190815260200160002060030154915091939590929450565b610969610655565b6109a8576040517f08c379a000000000000000000000000000000000000000000000000000000000815260040161099f9061168a565b60405180910390fd5b6109b183610f7c565b156109bb57600080fd5b600082511480156109ca575080155b15610a7c5742600160008581526020019081526020016000206000018190555060006001600085815260200190815260200160002060010181905550426001600085815260200190815260200160002060020181905550600180600085815260200190815260200160002060040160006101000a81548160ff02191690836003811115610a5a57610a596116aa565b5b0217905550826002600085815260200190815260200160002081905550610bc3565b42600160008581526020019081526020016000206000018190555081516001600085815260200190815260200160002060010181905550600060016000858152602001908152602001600020600201819055506000600160008581526020019081526020016000206003018190555060006001600085815260200190815260200160002060040160006101000a81548160ff02191690836003811115610b2557610b246116aa565b5b021790555060005b82518160ff161015610bc15760018060008681526020019081526020016000206005016000858460ff1681518110610b6857610b676116d9565b5b602002602001015173ffffffffffffffffffffffffffffffffffffffff1673ffffffffffffffffffffffffffffffffffffffff168152602001908152602001600020819055508080610bb99061176d565b915050610b2d565b505b7f102d25c49d33fcdb8976a3f2744e0785c98d9e43b88364859e6aec4ae82eff5c83604051610bf29190611150565b60405180910390a1505050565b610c07610655565b610c46576040517f08c379a0000000000000000000000000000000000000000000000000000000008152600401610c3d9061168a565b60405180910390fd5b610c4f84610f7c565b610c5857600080fd5b8015610d705760026001600086815260200190815260200160002060040160006101000a81548160ff02191690836003811115610c9857610c976116aa565b5b0217905550426001600086815260200190815260200160002060050160008473ffffffffffffffffffffffffffffffffffffffff1673ffffffffffffffffffffffffffffffffffffffff168152602001908152602001600020819055507fb8526e1444e9c290023ad66cce8f6e244b2d2feccf95c75b46dea2670a21d0dc848484604051610d2893929190611796565b60405180910390a17fc3d15495e30e2bac79ec5ed3685d615e10863936359d59aca3a8e7cee94d11f2848484604051610d6393929190611796565b60405180910390a1610f23565b600180600086815260200190815260200160002060050160008473ffffffffffffffffffffffffffffffffffffffff1673ffffffffffffffffffffffffffffffffffffffff1681526020019081526020016000205414610dcf57600080fd5b600160008581526020019081526020016000206001016000815480929190610df6906117cd565b9190505550426001600086815260200190815260200160002060050160008473ffffffffffffffffffffffffffffffffffffffff1673ffffffffffffffffffffffffffffffffffffffff168152602001908152602001600020819055507fb8526e1444e9c290023ad66cce8f6e244b2d2feccf95c75b46dea2670a21d0dc848484604051610e8693929190611796565b60405180910390a16000600160008681526020019081526020016000206001015403610f2257600180600086815260200190815260200160002060040160006101000a81548160ff02191690836003811115610ee557610ee46116aa565b5b02179055507f2563bf12e759147ae41a036dffeece03c4db05da3b738a30dd100821f498c57c84604051610f199190611150565b60405180910390a15b5b50505050565b610f31610655565b610f70576040517f08c379a0000000000000000000000000000000000000000000000000000000008152600401610f679061168a565b60405180910390fd5b610f7981610f9e565b50565b6000806001600084815260200190815260200160002060000154119050919050565b600073ffffffffffffffffffffffffffffffffffffffff168173ffffffffffffffffffffffffffffffffffffffff160361100d576040517f08c379a000000000000000000000000000000000000000000000000000000000815260040161100490611868565b60405180910390fd5b8073ffffffffffffffffffffffffffffffffffffffff1660008054906101000a900473ffffffffffffffffffffffffffffffffffffffff1673ffffffffffffffffffffffffffffffffffffffff167f8be0079c531659141344cd1fd0a4f28419497f9722a3daafe3b4186f6b6457e060405160405180910390a3806000806101000a81548173ffffffffffffffffffffffffffffffffffffffff021916908373ffffffffffffffffffffffffffffffffffffffff16021790555050565b6000604051905090565b600080fd5b600080fd5b6000819050919050565b6110f1816110de565b81146110fc57600080fd5b50565b60008135905061110e816110e8565b92915050565b60006020828403121561112a576111296110d4565b5b6000611138848285016110ff565b91505092915050565b61114a816110de565b82525050565b60006020820190506111656000830184611141565b92915050565b600073ffffffffffffffffffffffffffffffffffffffff82169050919050565b60006111968261116b565b9050919050565b6111a68161118b565b81146111b157600080fd5b50565b6000813590506111c38161119d565b92915050565b600080604083850312156111e0576111df6110d4565b5b60006111ee858286016110ff565b92505060206111ff858286016111b4565b9150509250929050565b6000819050919050565b61121c81611209565b82525050565b60006020820190506112376000830184611213565b92915050565b60008060408385031215611254576112536110d4565b5b6000611262858286016110ff565b9250506020611273858286016110ff565b9150509250929050565b6112868161118b565b82525050565b60006020820190506112a1600083018461127d565b92915050565b60008115159050919050565b6112bc816112a7565b82525050565b60006020820190506112d760008301846112b3565b92915050565b600081519050919050565b600082825260208201905092915050565b60005b838110156113175780820151818401526020810190506112fc565b60008484015250505050565b6000601f19601f8301169050919050565b600061133f826112dd565b61134981856112e8565b93506113598185602086016112f9565b61136281611323565b840191505092915050565b600060a0820190506113826000830188611213565b61138f6020830187611213565b61139c6040830186611213565b6113a96060830185611141565b81810360808301526113bb8184611334565b90509695505050505050565b600080fd5b7f4e487b7100000000000000000000000000000000000000000000000000000000600052604160045260246000fd5b61140482611323565b810181811067ffffffffffffffff82111715611423576114226113cc565b5b80604052505050565b60006114366110ca565b905061144282826113fb565b919050565b600067ffffffffffffffff821115611462576114616113cc565b5b602082029050602081019050919050565b600080fd5b600061148b61148684611447565b61142c565b905080838252602082019050602084028301858111156114ae576114ad611473565b5b835b818110156114d757806114c388826111b4565b8452602084019350506020810190506114b0565b5050509392505050565b600082601f8301126114f6576114f56113c7565b5b8135611506848260208601611478565b91505092915050565b611518816112a7565b811461152357600080fd5b50565b6000813590506115358161150f565b92915050565b600080600060608486031215611554576115536110d4565b5b6000611562868287016110ff565b935050602084013567ffffffffffffffff811115611583576115826110d9565b5b61158f868287016114e1565b92505060406115a086828701611526565b9150509250925092565b600080600080608085870312156115c4576115c36110d4565b5b60006115d2878288016110ff565b94505060206115e3878288016110ff565b93505060406115f4878288016111b4565b925050606061160587828801611526565b91505092959194509250565b600060208284031215611627576116266110d4565b5b6000611635848285016111b4565b91505092915050565b7f4f776e61626c653a2063616c6c6572206973206e6f7420746865206f776e6572600082015250565b60006116746020836112e8565b915061167f8261163e565b602082019050919050565b600060208201905081810360008301526116a381611667565b9050919050565b7f4e487b7100000000000000000000000000000000000000000000000000000000600052602160045260246000fd5b7f4e487b7100000000000000000000000000000000000000000000000000000000600052603260045260246000fd5b600060408201905061171d6000830185611141565b61172a6020830184611141565b9392505050565b7f4e487b7100000000000000000000000000000000000000000000000000000000600052601160045260246000fd5b600060ff82169050919050565b600061177882611760565b915060ff820361178b5761178a611731565b5b600182019050919050565b60006060820190506117ab6000830186611141565b6117b86020830185611141565b6117c5604083018461127d565b949350505050565b60006117d882611209565b9150600082036117eb576117ea611731565b5b600182039050919050565b7f4f776e61626c653a206e6577206f776e657220697320746865207a65726f206160008201527f6464726573730000000000000000000000000000000000000000000000000000602082015250565b60006118526026836112e8565b915061185d826117f6565b604082019050919050565b6000602082019050818103600083015261188181611845565b905091905056fea2646970667358221220a533ea67121252f2611a017069f6c13c678f6c26df22396639ff357859bb2dc364736f6c63430008180033",
  "linkReferences": {},
  "deployedLinkReferences": {}
}