{
  "_format": "hh-sol-artifact-1",
  "contractName": "DocumentRegistry",
  "sourceName": "contracts/DocumentRegistry.sol",
  "abi": [
    {
      "anonymous": false,
      "inputs": [
        {
          "indexed": true,
          "internalType": "address",
          "name": "uploader",
          "type": "address"
        },
        {
          "indexed": false,
          "internalType": "bytes",
          "name": "originalHash",
          "type": "bytes"
        },
        {
          "indexed": false,
          "internalType": "bytes",
          "name": "hashByPrivateKey",
          "type": "bytes"
        },
        {
          "indexed": false,
          "internalType": "uint256",
          "name": "timestamp",
          "type": "uint256"
        }
      ],
      "name": "DocumentUploaded",
      "type": "event"
    },
    {
      "inputs": [
        {
          "internalType": "bytes32",
          "name": "",
          "type": "bytes32"
        }
      ],
      "name": "documents",
      "outputs": [
        {
          "internalType": "address",
          "name": "uploader",
          "type": "address"
        },
        {
          "internalType": "bytes",
          "name": "originalHash",
          "type": "bytes"
        },
        {
          "internalType": "bytes",
          "name": "hashByPrivateKey",
          "type": "bytes"
        },
        {
          "internalType": "uint256",
          "name": "timestamp",
          "type": "uint256"
        }
      ],
      "stateMutability": "view",
      "type": "function"
    },
    {
      "inputs": [
        {
          "internalType": "bytes",
          "name": "_originalHash",
          "type": "bytes"
        }
      ],
      "name": "getDocument",
      "outputs": [
        {
          "internalType": "address",
          "name": "",
          "type": "address"
        },
        {
          "internalType": "bytes",
          "name": "",
          "type": "bytes"
        },
        {
          "internalType": "bytes",
          "name": "",
          "type": "bytes"
        },
        {
          "internalType": "uint256",
          "name": "",
          "type": "uint256"
        }
      ],
      "stateMutability": "view",
      "type": "function"
    },
    {
      "inputs": [
        {
          "internalType": "bytes",
          "name": "_originalHash",
          "type": "bytes"
        },
        {
          "internalType": "bytes",
          "name": "_hashByPrivateKey",
          "type": "bytes"
        }
      ],
      "name": "uploadDocument",
      "outputs": [],
      "stateMutability": "nonpayable",
      "type": "function"
    }
  ],
  "bytecode": "0x608060405234801561001057600080fd5b50610f05806100206000396000f3fe608060405234801561001057600080fd5b50600436106100415760003560e01c80632b2805db146100465780637aa408c014610079578063dcbcdc00146100ac575b600080fd5b610060600480360381019061005b919061076e565b6100c8565b6040516100709493929190610885565b60405180910390f35b610093600480360381019061008e919061093d565b610228565b6040516100a39493929190610885565b60405180910390f35b6100c660048036038101906100c1919061098a565b6104ba565b005b60006020528060005260406000206000915090508060000160009054906101000a900473ffffffffffffffffffffffffffffffffffffffff169080600101805461011190610a3a565b80601f016020809104026020016040519081016040528092919081815260200182805461013d90610a3a565b801561018a5780601f1061015f5761010080835404028352916020019161018a565b820191906000526020600020905b81548152906001019060200180831161016d57829003601f168201915b50505050509080600201805461019f90610a3a565b80601f01602080910402602001604051908101604052809291908181526020018280546101cb90610a3a565b80156102185780601f106101ed57610100808354040283529160200191610218565b820191906000526020600020905b8154815290600101906020018083116101fb57829003601f168201915b5050505050908060030154905084565b60006060806000808686604051610240929190610aaa565b60405180910390209050600073ffffffffffffffffffffffffffffffffffffffff1660008083815260200190815260200160002060000160009054906101000a900473ffffffffffffffffffffffffffffffffffffffff1673ffffffffffffffffffffffffffffffffffffffff16036102ee576040517f08c379a00000000000000000000000000000000000000000000000000000000081526004016102e590610b20565b60405180910390fd5b60008060008381526020019081526020016000206040518060800160405290816000820160009054906101000a900473ffffffffffffffffffffffffffffffffffffffff1673ffffffffffffffffffffffffffffffffffffffff1673ffffffffffffffffffffffffffffffffffffffff16815260200160018201805461037390610a3a565b80601f016020809104026020016040519081016040528092919081815260200182805461039f90610a3a565b80156103ec5780601f106103c1576101008083540402835291602001916103ec565b820191906000526020600020905b8154815290600101906020018083116103cf57829003601f168201915b5050505050815260200160028201805461040590610a3a565b80601f016020809104026020016040519081016040528092919081815260200182805461043190610a3a565b801561047e5780601f106104535761010080835404028352916020019161047e565b820191906000526020600020905b81548152906001019060200180831161046157829003601f168201915b50505050508152602001600382015481525050905080600001518160200151826040015183606001519550955095509550505092959194509250565b600084846040516104cc929190610aaa565b60405180910390209050600073ffffffffffffffffffffffffffffffffffffffff1660008083815260200190815260200160002060000160009054906101000a900473ffffffffffffffffffffffffffffffffffffffff1673ffffffffffffffffffffffffffffffffffffffff161461057a576040517f08c379a000000000000000000000000000000000000000000000000000000000815260040161057190610b8c565b60405180910390fd5b600060405180608001604052803373ffffffffffffffffffffffffffffffffffffffff16815260200187878080601f016020809104026020016040519081016040528093929190818152602001838380828437600081840152601f19601f82011690508083019250505050505050815260200185858080601f016020809104026020016040519081016040528093929190818152602001838380828437600081840152601f19601f8201169050808301925050505050505081526020014281525090508060008084815260200190815260200160002060008201518160000160006101000a81548173ffffffffffffffffffffffffffffffffffffffff021916908373ffffffffffffffffffffffffffffffffffffffff16021790555060208201518160010190816106ac9190610d87565b5060408201518160020190816106c29190610d87565b50606082015181600301559050503373ffffffffffffffffffffffffffffffffffffffff167fd4130e4f763e86a917027d3d0838dc8700cc737ad7e336076f0c4b9f1cb7c116878787874260405161071e959493929190610e86565b60405180910390a2505050505050565b600080fd5b600080fd5b6000819050919050565b61074b81610738565b811461075657600080fd5b50565b60008135905061076881610742565b92915050565b6000602082840312156107845761078361072e565b5b600061079284828501610759565b91505092915050565b600073ffffffffffffffffffffffffffffffffffffffff82169050919050565b60006107c68261079b565b9050919050565b6107d6816107bb565b82525050565b600081519050919050565b600082825260208201905092915050565b60005b838110156108165780820151818401526020810190506107fb565b60008484015250505050565b6000601f19601f8301169050919050565b600061083e826107dc565b61084881856107e7565b93506108588185602086016107f8565b61086181610822565b840191505092915050565b6000819050919050565b61087f8161086c565b82525050565b600060808201905061089a60008301876107cd565b81810360208301526108ac8186610833565b905081810360408301526108c08185610833565b90506108cf6060830184610876565b95945050505050565b600080fd5b600080fd5b600080fd5b60008083601f8401126108fd576108fc6108d8565b5b8235905067ffffffffffffffff81111561091a576109196108dd565b5b602083019150836001820283011115610936576109356108e2565b5b9250929050565b600080602083850312156109545761095361072e565b5b600083013567ffffffffffffffff81111561097257610971610733565b5b61097e858286016108e7565b92509250509250929050565b600080600080604085870312156109a4576109a361072e565b5b600085013567ffffffffffffffff8111156109c2576109c1610733565b5b6109ce878288016108e7565b9450945050602085013567ffffffffffffffff8111156109f1576109f0610733565b5b6109fd878288016108e7565b925092505092959194509250565b7f4e487b7100000000000000000000000000000000000000000000000000000000600052602260045260246000fd5b60006002820490506001821680610a5257607f821691505b602082108103610a6557610a64610a0b565b5b50919050565b600081905092915050565b82818337600083830152505050565b6000610a918385610a6b565b9350610a9e838584610a76565b82840190509392505050565b6000610ab7828486610a85565b91508190509392505050565b600082825260208201905092915050565b7f446f63756d656e7420646f6573206e6f74206578697374000000000000000000600082015250565b6000610b0a601783610ac3565b9150610b1582610ad4565b602082019050919050565b60006020820190508181036000830152610b3981610afd565b9050919050565b7f446f63756d656e7420616c726561647920657869737473000000000000000000600082015250565b6000610b76601783610ac3565b9150610b8182610b40565b602082019050919050565b60006020820190508181036000830152610ba581610b69565b9050919050565b7f4e487b7100000000000000000000000000000000000000000000000000000000600052604160045260246000fd5b60008190508160005260206000209050919050565b60006020601f8301049050919050565b600082821b905092915050565b600060088302610c3d7fffffffffffffffffffffffffffffffffffffffffffffffffffffffffffffffff82610c00565b610c478683610c00565b95508019841693508086168417925050509392505050565b6000819050919050565b6000610c84610c7f610c7a8461086c565b610c5f565b61086c565b9050919050565b6000819050919050565b610c9e83610c69565b610cb2610caa82610c8b565b848454610c0d565b825550505050565b600090565b610cc7610cba565b610cd2818484610c95565b505050565b5b81811015610cf657610ceb600082610cbf565b600181019050610cd8565b5050565b601f821115610d3b57610d0c81610bdb565b610d1584610bf0565b81016020851015610d24578190505b610d38610d3085610bf0565b830182610cd7565b50505b505050565b600082821c905092915050565b6000610d5e60001984600802610d40565b1980831691505092915050565b6000610d778383610d4d565b9150826002028217905092915050565b610d90826107dc565b67ffffffffffffffff811115610da957610da8610bac565b5b610db38254610a3a565b610dbe828285610cfa565b600060209050601f831160018114610df15760008415610ddf578287015190505b610de98582610d6b565b865550610e51565b601f198416610dff86610bdb565b60005b82811015610e2757848901518255600182019150602085019450602081019050610e02565b86831015610e445784890151610e40601f891682610d4d565b8355505b6001600288020188555050505b505050505050565b6000610e6583856107e7565b9350610e72838584610a76565b610e7b83610822565b840190509392505050565b60006060820190508181036000830152610ea1818789610e59565b90508181036020830152610eb6818587610e59565b9050610ec56040830184610876565b969550505050505056fea2646970667358221220c64c9287be4132eef940490617e54df3313b730a14f444f8f130e732f682324964736f6c63430008180033",
  "linkReferences": {},
  "deployedLinkReferences": {}
}