{
  "_format": "hh-sol-artifact-1",
  "contractName": "UserRegistry",
  "sourceName": "contracts/UserRegistry.sol",
  "abi": [
    {
      "anonymous": false,
      "inputs": [
        {
          "indexed": true,
          "internalType": "address",
          "name": "user",
          "type": "address"
        },
        {
          "indexed": false,
          "internalType": "bytes",
          "name": "verifyKey",
          "type": "bytes"
        },
        {
          "indexed": false,
          "internalType": "bytes",
          "name": "encryptKey",
          "type": "bytes"
        },
        {
          "indexed": false,
          "internalType": "string",
          "name": "email",
          "type": "string"
        }
      ],
      "name": "UserUpdated",
      "type": "event"
    },
    {
      "inputs": [
        {
          "internalType": "bytes",
          "name": "_verifyKey",
          "type": "bytes"
        },
        {
          "internalType": "bytes",
          "name": "_encryptKey",
          "type": "bytes"
        },
        {
          "internalType": "string",
          "name": "_email",
          "type": "string"
        }
      ],
      "name": "createUser",
      "outputs": [],
      "stateMutability": "nonpayable",
      "type": "function"
    },
    {
      "inputs": [
        {
          "internalType": "address",
          "name": "_user",
          "type": "address"
        }
      ],
      "name": "getUser",
      "outputs": [
        {
          "internalType": "bytes",
          "name": "verifyKey",
          "type": "bytes"
        },
        {
          "internalType": "bytes",
          "name": "encryptKey",
          "type": "bytes"
        },
        {
          "internalType": "string",
          "name": "email",
          "type": "string"
        }
      ],
      "stateMutability": "view",
      "type": "function"
    },
    {
      "inputs": [
        {
          "internalType": "address",
          "name": "",
          "type": "address"
        }
      ],
      "name": "users",
      "outputs": [
        {
          "internalType": "bytes",
          "name": "verifyKey",
          "type": "bytes"
        },
        {
          "internalType": "bytes",
          "name": "encryptKey",
          "type": "bytes"
        },
        {
          "internalType": "string",
          "name": "email",
          "type": "string"
        }
      ],
      "stateMutability": "view",
      "type": "function"
    }
  ],
  "bytecode": "0x608060405234801561001057600080fd5b50610fcc806100206000396000f3fe608060405234801561001057600080fd5b50600436106100415760003560e01c80630c34cc84146100465780636f77926b14610062578063a87430ba14610094575b600080fd5b610060600480360381019061005b91906107a9565b6100c6565b005b61007c600480360381019061007791906108bb565b6102a9565b60405161008b939291906109cd565b60405180910390f35b6100ae60048036038101906100a991906108bb565b610522565b6040516100bd939291906109cd565b60405180910390f35b60008060003373ffffffffffffffffffffffffffffffffffffffff1673ffffffffffffffffffffffffffffffffffffffff168152602001908152602001600020600001805461011490610a48565b905014610156576040517f08c379a000000000000000000000000000000000000000000000000000000000815260040161014d90610ac5565b60405180910390fd5b85856000803373ffffffffffffffffffffffffffffffffffffffff1673ffffffffffffffffffffffffffffffffffffffff16815260200190815260200160002060000191826101a6929190610cd5565b5083836000803373ffffffffffffffffffffffffffffffffffffffff1673ffffffffffffffffffffffffffffffffffffffff16815260200190815260200160002060010191826101f7929190610cd5565b5081816000803373ffffffffffffffffffffffffffffffffffffffff1673ffffffffffffffffffffffffffffffffffffffff1681526020019081526020016000206002019182610248929190610e0b565b503373ffffffffffffffffffffffffffffffffffffffff167fe66bef6061632f0b2d27cdc651599ba328b63b464a7d9f1fd9a6e23f0150a20f87878787878760405161029996959493929190610f44565b60405180910390a2505050505050565b60608060606000808573ffffffffffffffffffffffffffffffffffffffff1673ffffffffffffffffffffffffffffffffffffffff1681526020019081526020016000206000016000808673ffffffffffffffffffffffffffffffffffffffff1673ffffffffffffffffffffffffffffffffffffffff1681526020019081526020016000206001016000808773ffffffffffffffffffffffffffffffffffffffff1673ffffffffffffffffffffffffffffffffffffffff16815260200190815260200160002060020182805461037d90610a48565b80601f01602080910402602001604051908101604052809291908181526020018280546103a990610a48565b80156103f65780601f106103cb576101008083540402835291602001916103f6565b820191906000526020600020905b8154815290600101906020018083116103d957829003601f168201915b5050505050925081805461040990610a48565b80601f016020809104026020016040519081016040528092919081815260200182805461043590610a48565b80156104825780601f1061045757610100808354040283529160200191610482565b820191906000526020600020905b81548152906001019060200180831161046557829003601f168201915b5050505050915080805461049590610a48565b80601f01602080910402602001604051908101604052809291908181526020018280546104c190610a48565b801561050e5780601f106104e35761010080835404028352916020019161050e565b820191906000526020600020905b8154815290600101906020018083116104f157829003601f168201915b505050505090509250925092509193909250565b600060205280600052604060002060009150905080600001805461054590610a48565b80601f016020809104026020016040519081016040528092919081815260200182805461057190610a48565b80156105be5780601f10610593576101008083540402835291602001916105be565b820191906000526020600020905b8154815290600101906020018083116105a157829003601f168201915b5050505050908060010180546105d390610a48565b80601f01602080910402602001604051908101604052809291908181526020018280546105ff90610a48565b801561064c5780601f106106215761010080835404028352916020019161064c565b820191906000526020600020905b81548152906001019060200180831161062f57829003601f168201915b50505050509080600201805461066190610a48565b80601f016020809104026020016040519081016040528092919081815260200182805461068d90610a48565b80156106da5780601f106106af576101008083540402835291602001916106da565b820191906000526020600020905b8154815290600101906020018083116106bd57829003601f168201915b5050505050905083565b600080fd5b600080fd5b600080fd5b600080fd5b600080fd5b60008083601f840112610713576107126106ee565b5b8235905067ffffffffffffffff8111156107305761072f6106f3565b5b60208301915083600182028301111561074c5761074b6106f8565b5b9250929050565b60008083601f840112610769576107686106ee565b5b8235905067ffffffffffffffff811115610786576107856106f3565b5b6020830191508360018202830111156107a2576107a16106f8565b5b9250929050565b600080600080600080606087890312156107c6576107c56106e4565b5b600087013567ffffffffffffffff8111156107e4576107e36106e9565b5b6107f089828a016106fd565b9650965050602087013567ffffffffffffffff811115610813576108126106e9565b5b61081f89828a016106fd565b9450945050604087013567ffffffffffffffff811115610842576108416106e9565b5b61084e89828a01610753565b92509250509295509295509295565b600073ffffffffffffffffffffffffffffffffffffffff82169050919050565b60006108888261085d565b9050919050565b6108988161087d565b81146108a357600080fd5b50565b6000813590506108b58161088f565b92915050565b6000602082840312156108d1576108d06106e4565b5b60006108df848285016108a6565b91505092915050565b600081519050919050565b600082825260208201905092915050565b60005b83811015610922578082015181840152602081019050610907565b60008484015250505050565b6000601f19601f8301169050919050565b600061094a826108e8565b61095481856108f3565b9350610964818560208601610904565b61096d8161092e565b840191505092915050565b600081519050919050565b600082825260208201905092915050565b600061099f82610978565b6109a98185610983565b93506109b9818560208601610904565b6109c28161092e565b840191505092915050565b600060608201905081810360008301526109e7818661093f565b905081810360208301526109fb818561093f565b90508181036040830152610a0f8184610994565b9050949350505050565b7f4e487b7100000000000000000000000000000000000000000000000000000000600052602260045260246000fd5b60006002820490506001821680610a6057607f821691505b602082108103610a7357610a72610a19565b5b50919050565b7f5573657220616c72656164792065786973747300000000000000000000000000600082015250565b6000610aaf601383610983565b9150610aba82610a79565b602082019050919050565b60006020820190508181036000830152610ade81610aa2565b9050919050565b600082905092915050565b7f4e487b7100000000000000000000000000000000000000000000000000000000600052604160045260246000fd5b60008190508160005260206000209050919050565b60006020601f8301049050919050565b600082821b905092915050565b600060088302610b817fffffffffffffffffffffffffffffffffffffffffffffffffffffffffffffffff82610b44565b610b8b8683610b44565b95508019841693508086168417925050509392505050565b6000819050919050565b6000819050919050565b6000610bd2610bcd610bc884610ba3565b610bad565b610ba3565b9050919050565b6000819050919050565b610bec83610bb7565b610c00610bf882610bd9565b848454610b51565b825550505050565b600090565b610c15610c08565b610c20818484610be3565b505050565b5b81811015610c4457610c39600082610c0d565b600181019050610c26565b5050565b601f821115610c8957610c5a81610b1f565b610c6384610b34565b81016020851015610c72578190505b610c86610c7e85610b34565b830182610c25565b50505b505050565b600082821c905092915050565b6000610cac60001984600802610c8e565b1980831691505092915050565b6000610cc58383610c9b565b9150826002028217905092915050565b610cdf8383610ae5565b67ffffffffffffffff811115610cf857610cf7610af0565b5b610d028254610a48565b610d0d828285610c48565b6000601f831160018114610d3c5760008415610d2a578287013590505b610d348582610cb9565b865550610d9c565b601f198416610d4a86610b1f565b60005b82811015610d7257848901358255600182019150602085019450602081019050610d4d565b86831015610d8f5784890135610d8b601f891682610c9b565b8355505b6001600288020188555050505b50505050505050565b600082905092915050565b60008190508160005260206000209050919050565b601f821115610e0657610dd781610db0565b610de084610b34565b81016020851015610def578190505b610e03610dfb85610b34565b830182610c25565b50505b505050565b610e158383610da5565b67ffffffffffffffff811115610e2e57610e2d610af0565b5b610e388254610a48565b610e43828285610dc5565b6000601f831160018114610e725760008415610e60578287013590505b610e6a8582610cb9565b865550610ed2565b601f198416610e8086610db0565b60005b82811015610ea857848901358255600182019150602085019450602081019050610e83565b86831015610ec55784890135610ec1601f891682610c9b565b8355505b6001600288020188555050505b50505050505050565b82818337600083830152505050565b6000610ef683856108f3565b9350610f03838584610edb565b610f0c8361092e565b840190509392505050565b6000610f238385610983565b9350610f30838584610edb565b610f398361092e565b840190509392505050565b60006060820190508181036000830152610f5f81888a610eea565b90508181036020830152610f74818688610eea565b90508181036040830152610f89818486610f17565b905097965050505050505056fea2646970667358221220b1666c0fe6e91357b2f7bfc29d2b3c98797587b3da072b669c9b3298f89beb1464736f6c63430008180033",
  "linkReferences": {},
  "deployedLinkReferences": {}
}